{
  "jsonrpc": "2.0",
  "result": [
    {
      "blockHash": null,
      "blockNumber": null,
      "condition": null,
      "creates": null,
      "from": "OUR_ADDRESS",
      "gas": "0x2dafa",
      "gasPrice": "0xbdfd63e00",
      "hash": "0x72e7a42d3e1b0773f62cfa9ee2bc54ff904a908ac2a668678f9c4880fd046f7a",
      "input": "0xa9059cbb0000000000000000000000008287b2b9a5039cac151a26a23c747cd4741277540000000000000000000000000000000000000000000000039f54fe95ac77b400",
      "networkId": 1,
      "nonce": "0x9",
      "publicKey": "0x8178af6e1ae9a747de289f2106a85875288b24a2c6bdb1f069cad506409abdd4f1bd1ac05507615c852a9a74cf3013f7b13b9e0f03870011993e575a357a308d",
      "r": "0xebb0ba97a67fed5228171b7fe55c67f708cf203419405451530344b192af3a45",
      "raw": "0xf8ad831b2846850bdfd63e008302dafa94b97048628db6b661d4c2aa833e95dbe1a905b28080b844a9059cbb0000000000000000000000008287b2b9a5039cac151a26a23c747cd4741277540000000000000000000000000000000000000000000000039f54fe95ac77b40025a0ebb0ba97a67fed5228171b7fe55c67f708cf203419405451530344b192af3a45a00ac4555393139c9f5ad7deba52f7aa5498c5b23c117261ef49fcf4a6f3e71d4f",
      "s": "0xac4555393139c9f5ad7deba52f7aa5498c5b23c117261ef49fcf4a6f3e71d4f",
      "standardV": "0x0",
      "to": "0xb97048628db6b661d4c2aa833e95dbe1a905b280",
      "transactionIndex": null,
      "v": "0x25",
      "value": "0x0"
    },
    {
      "blockHash": null,
      "blockNumber": null,
      "condition": null,
      "creates": null,
      "from": "OUR_ADDRESS",
      "gas": "0x28b0a",
      "gasPrice": "0xba43b7400",
      "hash": "0x53050e62c81fbe440d97d703860096467089bd37b2ad4cc6c699acf217436a64",
      "input": "0x",
      "networkId": 1,
      "nonce": "0xb",
      "publicKey": "0x4b3d30880a773376502205d29c82c1f7a97525e167ebc5e2727b26bb1aa77fc115587e806fec3c2485b5c79199f00a5a50717e24f301c6dea3e8dea0d3af1c3a",
      "r": "0xf46abc0591c825747c1ab752678335c2152d0e1bbdbfde4088eaafe58c4a888b",
      "raw": "0xf86d34850ba43b740083028b0a94f5bec430576ff1b82e44ddb5a1c93f6f9d0884f3880370f72a2bbef8008026a0f46abc0591c825747c1ab752678335c2152d0e1bbdbfde4088eaafe58c4a888ba0586adbec60703c5619f64b5c65b92f37b04c98bf18f0eb09d88fa0fec79109ce",
      "s": "0x586adbec60703c5619f64b5c65b92f37b04c98bf18f0eb09d88fa0fec79109ce",
      "standardV": "0x1",
      "to": "0xf5bec430576ff1b82e44ddb5a1c93f6f9d0884f3",
      "transactionIndex": null,
      "v": "0x26",
      "value": "0x370f72a2bbef800"
    },
    {
      "blockHash": null,
      "blockNumber": null,
      "condition": null,
      "creates": null,
      "from": "OUR_ADDRESS",
      "gas": "0x28b0a",
      "gasPrice": "0xba43b7400",
      "hash": "0x53050e62c81fbe440d97d703860096467089bd37b2ad4cc6c699acf217436a64",
      "input": "0x",
      "networkId": 1,
      "nonce": "0xb",
      "publicKey": "0x4b3d30880a773376502205d29c82c1f7a97525e167ebc5e2727b26bb1aa77fc115587e806fec3c2485b5c79199f00a5a50717e24f301c6dea3e8dea0d3af1c3a",
      "r": "0xf46abc0591c825747c1ab752678335c2152d0e1bbdbfde4088eaafe58c4a888b",
      "raw": "0xf86d34850ba43b740083028b0a94f5bec430576ff1b82e44ddb5a1c93f6f9d0884f3880370f72a2bbef8008026a0f46abc0591c825747c1ab752678335c2152d0e1bbdbfde4088eaafe58c4a888ba0586adbec60703c5619f64b5c65b92f37b04c98bf18f0eb09d88fa0fec79109ce",
      "s": "0x586adbec60703c5619f64b5c65b92f37b04c98bf18f0eb09d88fa0fec79109ce",
      "standardV": "0x1",
      "to": "0xf5bec430576ff1b82e44ddb5a1c93f6f9d0884f3",
      "transactionIndex": null,
      "v": "0x26",
      "value": "0x370f72a2bbef800"
    }
  ],
  "id": 1
}
