{
  "jsonrpc": "2.0",
  "result": [
    {
      "blockHash": null,
      "blockNumber": null,
      "condition": null,
      "creates": null,
      "from": "0x1c7db99ea791340a6a4009f5b188325b7618a362",
      "gas": "0x249f0",
      "gasPrice": "0xdf8475800",
      "hash": "0x4a0c625b4b2f16fef40814ed6abd1fee6c05251669b879d0f76dbe5568b84dc1",
      "input": "0xa9059cbb000000000000000000000000627b10ad469cb6f76ada94b9ae2c6753340b81d800000000000000000000000000000000000000000000021e19e0c9bab2400000",
      "networkId": 1,
      "nonce": "0x5c",
      "publicKey": "0x35a6486cfb5b57f9ca9b85976db469a285d045ca8c5e1c33a26a4a9a87d5593a873430e9826ef67702d8377b0f399a31d80571dd82b3d284c241aa0c1aba2ae9",
      "r": "0xec889cfe76763906d42329b5fe183ed8968480f66bd38e9d0d1f5b4569931a9f",
      "raw": "0xf8aa5c850df8475800830249f094b97048628db6b661d4c2aa833e95dbe1a905b28080b844a9059cbb000000000000000000000000627b10ad469cb6f76ada94b9ae2c6753340b81d800000000000000000000000000000000000000000000021e19e0c9bab240000025a0ec889cfe76763906d42329b5fe183ed8968480f66bd38e9d0d1f5b4569931a9fa01bb511c183668c4c88b50ab5c061246ec49d64e556f948d6738b515179c7f513",
      "s": "0x1bb511c183668c4c88b50ab5c061246ec49d64e556f948d6738b515179c7f513",
      "standardV": "0x0",
      "to": "0xb97048628db6b661d4c2aa833e95dbe1a905b280",
      "transactionIndex": null,
      "v": "0x25",
      "value": "0x0"
    },
    {
      "blockHash": null,
      "blockNumber": null,
      "condition": null,
      "creates": null,
      "from": "0x02f8bf877823cab3246501cd8db8dc14c5cad109",
      "gas": "0xcba4",
      "gasPrice": "0xd4576fa00",
      "hash": "0xe088f44ba74236e9e4f5cbb77e1d62836cee45a38b400b7548f9f8a4713fd446",
      "input": "0xa9059cbb000000000000000000000000283097d58a340871b9138c0ad1098e0fe0526ba500000000000000000000000000000000000000000001a1ec0a56ebb7ad140000",
      "networkId": 1,
      "nonce": "0x1c",
      "publicKey": "0x21628f25b96698728f9bb6c2b23c40c347980902bdf5bbb5986dd9c8ee15c3946554def84c15223f0307430d7eb78aeeeecc47e354cb15f72ff09bdcba7cabc6",
      "r": "0xaa561d4ebbbbb7112a550e705f93ab0a806c42f88d0b0b4aeb57bf5e2c5206e0",
      "raw": "0xf8a91c850d4576fa0082cba494818fc6c2ec5986bc6e2cbf00939d90556ab12ce580b844a9059cbb000000000000000000000000283097d58a340871b9138c0ad1098e0fe0526ba500000000000000000000000000000000000000000001a1ec0a56ebb7ad14000026a0aa561d4ebbbbb7112a550e705f93ab0a806c42f88d0b0b4aeb57bf5e2c5206e0a0425f5160e05d27b9d0f7f98369176dc9e42b8c3d83fb49f853f707e3e82e333e",
      "s": "0x425f5160e05d27b9d0f7f98369176dc9e42b8c3d83fb49f853f707e3e82e333e",
      "standardV": "0x1",
      "to": "0x818fc6c2ec5986bc6e2cbf00939d90556ab12ce5",
      "transactionIndex": null,
      "v": "0x26",
      "value": "0x0"
    },
    {
      "blockHash": null,
      "blockNumber": null,
      "condition": null,
      "creates": null,
      "from": "OUR_ADDRESS",
      "gas": "0x2dafa",
      "gasPrice": "0xbdfd63e00",
      "hash": "0x72e7a42d3e1b0773f62cfa9ee2bc54ff904a908ac2a668678f9c4880fd046f7a",
      "input": "0xa9059cbb0000000000000000000000008287b2b9a5039cac151a26a23c747cd4741277540000000000000000000000000000000000000000000000039f54fe95ac77b400",
      "networkId": 1,
      "nonce": "0x9",
      "publicKey": "0x8178af6e1ae9a747de289f2106a85875288b24a2c6bdb1f069cad506409abdd4f1bd1ac05507615c852a9a74cf3013f7b13b9e0f03870011993e575a357a308d",
      "r": "0xebb0ba97a67fed5228171b7fe55c67f708cf203419405451530344b192af3a45",
      "raw": "0xf8ad831b2846850bdfd63e008302dafa94b97048628db6b661d4c2aa833e95dbe1a905b28080b844a9059cbb0000000000000000000000008287b2b9a5039cac151a26a23c747cd4741277540000000000000000000000000000000000000000000000039f54fe95ac77b40025a0ebb0ba97a67fed5228171b7fe55c67f708cf203419405451530344b192af3a45a00ac4555393139c9f5ad7deba52f7aa5498c5b23c117261ef49fcf4a6f3e71d4f",
      "s": "0xac4555393139c9f5ad7deba52f7aa5498c5b23c117261ef49fcf4a6f3e71d4f",
      "standardV": "0x0",
      "to": "0xb97048628db6b661d4c2aa833e95dbe1a905b280",
      "transactionIndex": null,
      "v": "0x25",
      "value": "0x0"
    },
    {
      "blockHash": null,
      "blockNumber": null,
      "condition": null,
      "creates": null,
      "from": "OUR_ADDRESS",
      "gas": "0x5208",
      "gasPrice": "0xbdfd63e00",
      "hash": "0x124cb0887d0ea364b402fcc1369b7f9bf4d651bc77d2445aefbeab538dd3aab9",
      "input": "0x",
      "networkId": 1,
      "nonce": "0xa",
      "publicKey": "0xcdfbc962e81f6f48c195c145085c0946ff51e94940073ae027eb26cccf8cdf70a88eed73b638f7775dae1a6dbf70abb94a7c9d066bf0809b24a51205ec5e9404",
      "r": "0xf9fd5ce4f6b6310109d6655d170a0ef3c0e1e1931fd97ee90b21dedb50267b06",
      "raw": "0xf86c27850bdfd63e0082520894f3598b445e3a8eeb09400de94f1e4e63506142b38805bc1f972efb80008026a0f9fd5ce4f6b6310109d6655d170a0ef3c0e1e1931fd97ee90b21dedb50267b06a0210fd4df5bc48d47e824adcea2c77a39bd22c41342dfd8a1291614cc34aab794",
      "s": "0x210fd4df5bc48d47e824adcea2c77a39bd22c41342dfd8a1291614cc34aab794",
      "standardV": "0x1",
      "to": "0xf3598b445e3a8eeb09400de94f1e4e63506142b3",
      "transactionIndex": null,
      "v": "0x26",
      "value": "0x5bc1f972efb8000"
    },
    {
      "blockHash": null,
      "blockNumber": null,
      "condition": null,
      "creates": null,
      "from": "OUR_ADDRESS",
      "gas": "0x28b0a",
      "gasPrice": "0xba43b7400",
      "hash": "0x53050e62c81fbe440d97d703860096467089bd37b2ad4cc6c699acf217436a64",
      "input": "0x",
      "networkId": 1,
      "nonce": "0xb",
      "publicKey": "0x4b3d30880a773376502205d29c82c1f7a97525e167ebc5e2727b26bb1aa77fc115587e806fec3c2485b5c79199f00a5a50717e24f301c6dea3e8dea0d3af1c3a",
      "r": "0xf46abc0591c825747c1ab752678335c2152d0e1bbdbfde4088eaafe58c4a888b",
      "raw": "0xf86d34850ba43b740083028b0a94f5bec430576ff1b82e44ddb5a1c93f6f9d0884f3880370f72a2bbef8008026a0f46abc0591c825747c1ab752678335c2152d0e1bbdbfde4088eaafe58c4a888ba0586adbec60703c5619f64b5c65b92f37b04c98bf18f0eb09d88fa0fec79109ce",
      "s": "0x586adbec60703c5619f64b5c65b92f37b04c98bf18f0eb09d88fa0fec79109ce",
      "standardV": "0x1",
      "to": "0xf5bec430576ff1b82e44ddb5a1c93f6f9d0884f3",
      "transactionIndex": null,
      "v": "0x26",
      "value": "0x370f72a2bbef800"
    }
  ],
  "id": 1
}
